:200000000C945C000C946E000C946E000C946E000C946E000C946E000C946E000C946E0082
:200020000C946E000C946E000C946E000C946E000C946E000C946E000C946E000C946E0050
:200040000C9413010C946E000C946E000C946E000C946E000C946E000C946E000C946E008A
:200060000C946E000C946E0000000000240027002A0000000000250028002B000404040467
:200080000404040402020202020203030303030301020408102040800102040810200102F1
:2000A00004081020000000080002010000030407000000000000000011241FBECFEFD8E063
:2000C000DEBFCDBF21E0A0E0B1E001C01D92A930B207E1F70E945D010C94CC010C940000FE
:2000E000E1EBF0E02491EDE9F0E09491E9E8F0E0E491EE23C9F0222339F0233001F1A8F4B5
:20010000213019F1223029F1F0E0EE0FFF1FEE58FF4FA591B4912FB7F894EC91811126C0B7
:2001200090959E239C932FBF08952730A9F02830C9F0243049F7209180002F7D03C0209139
:2001400080002F7720938000DFCF24B52F7724BDDBCF24B52F7DFBCF2091B0002F77209385
:20016000B000D2CF2091B0002F7DF9CF9E2BDACF3FB7F8948091050190910601A0910701ED
:20018000B091080126B5A89B05C02F3F19F00196A11DB11D3FBFBA2FA92F982F8827BC01A6
:2001A000CD01620F711D811D911D42E0660F771F881F991F4A95D1F708958F929F92AF92C3
:2001C000BF92CF92DF92EF92FF920E94B8004B015C0188EEC82E83E0D82EE12CF12C0E9446
:2001E000B800681979098A099B09683E734081059105A8F321E0C21AD108E108F10888EEEF
:20020000880E83E0981EA11CB11CC114D104E104F10429F7FF90EF90DF90CF90BF90AF9097
:200220009F908F9008951F920F920FB60F9211242F933F938F939F93AF93BF938091010157
:2002400090910201A0910301B09104013091000123E0230F2D3758F50196A11DB11D209381
:2002600000018093010190930201A0930301B09304018091050190910601A0910701B0910A
:2002800008010196A11DB11D8093050190930601A0930701B0930801BF91AF919F918F9188
:2002A0003F912F910F900FBE0F901F90189526E8230F0296A11DB11DD2CF789484B582601B
:2002C00084BD84B5816084BD85B5826085BD85B5816085BD80916E00816080936E00109244
:2002E000810080918100826080938100809181008160809381008091800081608093800069
:200300008091B10084608093B1008091B00081608093B00080917A00846080937A00809101
:200320007A00826080937A0080917A00816080937A0080917A00806880937A001092C10078
:20034000EDE9F0E02491E9E8F0E08491882399F090E0880F991FFC01E859FF4FA591B49192
:20036000FC01EE58FF4F859194918FB7F894EC91E22BEC938FBFC0E0D0E081E00E947000C5
:200380000E94DD0080E00E9470000E94DD002097A1F30E940000F1CFF894FFCFFFFFFFFFEA
:2003A000FFFFFFFFFFFFFFFFFFFFFFFFFFFFFFFFFFFFFFFFFFFFFFFFFFFFFFFFFFFFFFFF5D
:2003C000FFFFFFFFFFFFFFFFFFFFFFFFFFFFFFFFFFFFFFFFFFFFFFFFFFFFFFFFFFFFFFFF3D
:2003E000FFFFFFFFFFFFFFFFFFFFFFFFFFFFFFFFFFFFFFFFFFFFFFFFFFFFFFFFFFFFFFFF1D
:2004000081E090E0DF91CF911F910F91FF90EF900895F62E0B8D10E00F5F1F4F0F731127FE
:20042000E02E8C8D8E110CC00FB607FCFACFE889F989808185FFF5CFCE010E94C001F1CF6B
:20044000EB8DEC0FFD2FF11DE35AFF4FF0829FB7F8940B8FEA89FB8980818062CFCFCF939C
:20046000DF93EC01888D8823B9F0AA89BB89E889F9898C9185FD03C0808186FD0DC00FB6D2
:2004800007FCF7CF8C9185FFF2CF808185FFEDCFCE010E94C001E9CFDF91CF910895FC019C
:2004A00001900020E9F73197AF01481B590BBC018FE891E00C9442018F929F92AF92BF9200
:2004C0000F931F93CF93DF93CDB7DEB7A1970FB6F894DEBF0FBECDBF19A2423008F44AE009
:2004E0008E010F5D1F4F842E912CB12CA12CA50194010E94F606E62FB901CA01EA30F4F405
:20050000E05DD801EE938D01232B242B252B79F790E080E0109719F0CD010E944F02A196E1
:200520000FB6F894DEBF0FBECDBFDF91CF911F910F91BF90AF909F908F900895E95CE1CFE6
:200540004F925F926F927F928F929F92AF92BF92CF92DF92EF92FF920F931F93CF936B01CD
:200560007C01742EAC019B010E946509882399F08AE191E0CF911F910F91FF90EF90DF90C6
:20058000CF90BF90AF909F908F907F906F905F904F900C944F0246015701E894B7F82FEF6B
:2005A0003FEF4FE75FE7C501B4010E94650981110DC02FEF3FEF4FE75FE7C501B4010E94C2
:2005C000940718161CF48EE191E0D4CF2FEF3FEF4FE75FE4C701B6010E94F30818161CF4A0
:2005E00082E291E0C7CF2FEF3FEF4FE75FECC701B6010E94940787FDF3CF20E030E0A90107
:20060000C701B6010E94940710E000E087FF0AC06DE28FE891E00E94E2018C01F7FAF09440
:20062000F7F8F094C0E060E070E080E09FE37C1641F020E030E040E251E40E949907CF5F9B
:20064000F6CFA70196010E9428072B013C010E9412084B015C014AE00E945C027C01E00E62
:20066000F11ECC23C1F1C501B4010E9441089B01AC01C301B2010E9427074B015C016EE2DB
:200680008FE891E00E94E201E80EF91EC15018F120E030E040E251E4C501B4010E94F80842
:2006A0002B013C010E9412084B01B12CA12C4AE0C501B4010E945C02E80EF91EC501B401F2
:2006C0000E9441089B01AC01C301B2010E9427074B015C01DBCFC701CF911F910F91FF9045
:2006E000EF90DF90CF90BF90AF909F908F907F906F905F904F9008951F920F920FB60F92A0
:2007000011242F933F938F939F93AF93BF938091870190918801A0918901B0918A0130919D
:20072000860123E0230F2D3758F50196A11DB11D209386018093870190938801A0938901EB
:20074000B0938A0180918B0190918C01A0918D01B0918E010196A11DB11D80938B0190930C
:200760008C01A0938D01B0938E01BF91AF919F918F913F912F910F900FBE0F901F90189582
:2007800026E8230F0296A11DB11DD2CF1F920F920FB60F9211242F933F934F935F936F93FD
:2007A0007F938F939F93AF93BF93EF93FF93E0910201F09103010995FF91EF91BF91AF91F4
:2007C0009F918F917F916F915F914F913F912F910F900FBE0F901F9018951F920F920FB6DB
:2007E0000F9211242F933F934F935F936F937F938F939F93AF93BF93EF93FF93E091000139
:20080000F09101010995FF91EF91BF91AF919F918F917F916F915F914F913F912F910F90B8
:200820000FBE0F901F9018951F920F920FB60F9211242F933F934F935F936F937F938F9365
:200840009F93AF93BF93EF93FF938FE891E00E94C001FF91EF91BF91AF919F918F917F9173
:200860006F915F914F913F912F910F900FBE0F901F9018951F920F920FB60F9211242F9302
:200880008F939F93EF93FF93E0919F01F091A0018081E091A501F091A60182FD1BC0908112
:2008A0008091A8018F5F8F732091A901821741F0E091A801F0E0E157FE4F958F8093A8011A
:2008C000FF91EF919F918F912F910F900FBE0F901F9018958081F4CF789484B5826084BD65
:2008E00084B5816084BD85B5826085BD85B5816085BD80916E00816080936E0010928100DE
:200900008091810082608093810080918100816080938100809180008160809380008091B2
:20092000B10084608093B1008091B00081608093B00080917A00846080937A0080917A0072
:20094000826080937A0080917A00816080937A0080917A00806880937A001092C10060E08C
:2009600082E00E94CF0060E08EE00E94CF0060E08FE00E94CF0061E086E00E94CF0087E3E3
:2009800091E0909301018093000180916900836080936900E89AE0919F01F091A00182E0BD
:2009A0008083E0919B01F0919C011082E0919D01F0919E018FEC80831092A701E091A3016B
:2009C000F091A40186E08083E091A101F091A201808180618083E091A101F091A201808134
:2009E00088608083E091A101F091A201808180688083E091A101F091A20180818F7D8083A2
:200A000095E0892E912CA12CB12C2AEA222E20E0322E00E010E08FB7F894C0908701D090A5
:200A20008801E0908901F0908A018FBF8091820190918301A0918401B0918501A7019601E5
:200A4000281B390B4A0B5B0BDA01C901883E9340A105B10550F16091800170918101072E4F
:200A6000000C880B990B0E94430820E030E040E752E40E94F80820E030E040EA51E40E9426
:200A8000990760937C0170937D0180937E0190937F011092810110928001C0928201D09212
:200AA0008301E0928401F09285018FE00E940001BC01990F880B990B0E9443082AE038E2F4
:200AC00040EA5BE30E94F8086B017C01C0920401D0920501E0920601F09207018EE00E9451
:200AE0000001BC01990F880B990B0E9443082AE038E240EA5BE30E94F8089B01AC01209342
:200B000078013093790140937A0150937B01C701B6010E9427076B017C01AC019B010E944F
:200B200028072B013C0120E030E0A9010E94940720E030E0A90187FD14C020E030E040EADA
:200B400050E4C301B2010E94F30825E030E040E050E0181634F0C301B2010E940B089B01CE
:200B6000AC01AFEFB0E00E94EB06A50194010E94CC06722E632EC22FD62DD0937701C09305
:200B8000760161E086E00E94CF00209709F08DC080E00E94870086E291E00E944F02609183
:200BA000040170910501809106019091070142E00E94A00284E391E00E944F02609178014D
:200BC0007091790180917A0190917B0142E00E94A0028CE491E00E944F0242E0C701B60196
:200BE0000E94A00289E591E00E944F02C0907601D09077010D2C000CEE08FF084AE0C7010C
:200C0000B601F7FE0DC06DE28FE891E00E94E20166277727CB016C197D098E099F094AE034
:200C20000E945C028AE691E00E944F0260917C0170917D0180917E0190917F0142E00E94FE
:200C4000A00283E791E00E944F020E9412012B013C0184E6C82ED12CE12CF12C0E941201CA
:200C60006419750986099709683E734081059105A8F3F1E0CF1AD108E108F10828EE420E5F
:200C800023E0521E611C711CC114D104E104F10429F70115110509F4BECE0E94AC01882384
:200CA00009F4B9CE0E940000B6CECF3FD10511F481E06FCFF1018491833029F140F4813049
:200CC000C1F08230D9F0C038D10594F761CF873031F1883061F18430B1F7809180008062AD
:200CE00080938000872D962D90938B0080938A0052CF84B5806884BD77BC4DCF84B58062B2
:200D000084BD78BC48CF80918000806880938000872D962D90938900809388003CCF809161
:200D2000B00080688093B0007092B30034CF8091B00080628093B0007092B4002CCFEFE8B2
:200D4000F1E01382128288EE93E0A0E0B0E084839583A683B7838CE091E09183808385ECB9
:200D600090E09587848784EC90E09787868780EC90E0918B808B81EC90E0938B828B82EC58
:200D800090E0958B848B86EC90E0978B868B118E128E138E148E0895052E97FB1EF4009415
:200DA0000E94E30657FD07D00E94F60607FC03D04EF40C94E30650954095309521953F4F7B
:200DC0004F4F5F4F089590958095709561957F4F8F4F9F4F08950E941807A59F900DB49FC9
:200DE000900DA49F800D911D11240895A1E21A2EAA1BBB1BFD010DC0AA1FBB1FEE1FFF1F07
:200E0000A217B307E407F50720F0A21BB30BE40BF50B661F771F881F991F1A9469F7609581
:200E20007095809590959B01AC01BD01CF010895A29FB001B39FC001A39F700D811D112468
:200E4000911DB29F700D811D1124911D08955058BB27AA270E943F070C94B9080E94AB08FF
:200E600038F00E94B20820F039F49F3F19F426F40C94A8080EF4E095E7FB0C94A208E92FA1
:200E80000E94CA0858F3BA17620773078407950720F079F4A6F50C94EC080EF4E0950B2E5C
:200EA000BA2FA02D0B01B90190010C01CA01A0011124FF27591B99F0593F50F4503E68F191
:200EC0001A16F040A22F232F342F4427585FF3CF469537952795A795F0405395C9F77EF45F
:200EE0001F16BA0B620B730B840BBAF09150A1F0FF0FBB1F661F771F881FC2F70EC0BA0F68
:200F0000621F731F841F48F4879577956795B795F7959E3F08F0B0CF9395880F08F0992718
:200F2000EE0F9795879508950E947E0808F481E008950E94AD070C94B9080E94B20858F052
:200F40000E94AB0840F029F45F3F29F00C94A20851110C94ED080C94A8080E94CA0868F3D8
:200F60009923B1F3552391F3951B550BBB27AA2762177307840738F09F5F5F4F220F331F7D
:200F8000441FAA1FA9F335D00E2E3AF0E0E832D091505040E695001CCAF72BD0FE2F29D06A
:200FA000660F771F881FBB1F261737074807AB07B0E809F0BB0B802DBF01FF2793585F4FA6
:200FC0003AF09E3F510578F00C94A2080C94ED085F3FE4F3983ED4F3869577956795B795EC
:200FE000F7959F5FC9F7880F911D9695879597F90895E1E0660F771F881FBB1F62177307AE
:201000008407BA0720F0621B730B840BBA0BEE1F88F7E09508950E9412086894B1110C946D
:20102000ED0808950E94D20888F09F5798F0B92F9927B751B0F0E1F0660F771F881F991F21
:201040001AF0BA95C9F714C0B13091F00E94EC08B1E008950C94EC08672F782F8827B85FE6
:2010600039F0B93FCCF3869577956795B395D9F73EF490958095709561957F4F8F4F9F4F54
:201080000895E89409C097FB3EF490958095709561957F4F8F4F9F4F9923A9F0F92F96E9DF
:2010A000BB279395F695879577956795B795F111F8CFFAF4BB0F11F460FF1BC06F5F7F4FCF
:2010C0008F4F9F4F16C0882311F096E911C0772321F09EE8872F762F05C0662371F096E8B9
:2010E000862F70E060E02AF09A95660F771F881FDAF7880F9695879597F90895990F000824
:20110000550FAA0BE0E8FEEF16161706E807F907C0F012161306E407F50798F0621B730B6E
:20112000840B950B39F40A2661F0232B242B252B21F408950A2609F4A140A6958FEF811DCE
:20114000811D089597F99F6780E870E060E008959FEF80EC089500240A9416161706180669
:201160000906089500240A9412161306140605060895092E0394000C11F4882352F0BB0F68
:2011800040F4BF2B11F460FF04C06F5F7F4F8F4F9F4F089557FD9058440F551F59F05F3F1A
:2011A00071F04795880F97FB991F61F09F3F79F087950895121613061406551FF2CF469555
:2011C000F1DF08C0161617061806991FF1CF86957105610508940895E894BB2766277727DF
:2011E000CB0197F908950E947E0808F48FEF08950E940B090C94B9080E94AB0838F00E9481
:20120000B20820F0952311F00C94A2080C94A80811240C94ED080E94CA0870F3959FC1F328
:20122000950F50E0551F629FF001729FBB27F00DB11D639FAA27F00DB11DAA1F649F6627BF
:20124000B00DA11D661F829F2227B00DA11D621F739FB00DA11D621F839FA00D611D221F8C
:20126000749F3327A00D611D231F849F600D211D822F762F6A2F11249F5750409AF0F1F0B1
:2012800088234AF0EE0FFF1FBB1F661F771F881F91505040A9F79E3F510580F00C94A208B4
:2012A0000C94ED085F3FE4F3983ED4F3869577956795B795F795E7959F5FC1F7FE2B880F9A
:2012C000911D9695879597F908950E947E08880B990B0895EE0FFF1F0590F491E02D099411
:2012E000F894FFCF410141010000204000000000E20142016F012F02A0017E0192016E6167
:201300006E00696E66006F76660052656620566F6C746167653A20002056207C204665652C
:20132000646261636B20566F6C746167653A20002056207C204572726F723A200020562040
:201340007C2050574D2056616C75653A2000207C2052504D3A20000D0A00FFFFFFFFFFFF70
:20136000FFFFFFFFFFFFFFFFFFFFFFFFFFFFFFFFFFFFFFFFFFFFFFFFFFFFFFFFFFFFFFFF8D
:201380006D01219709F07ECF60E375E780E090E00E946D0160E089E00E94DE0082E00E9435
:2013A00072046CEB71E080E892E00E94170583E00E9472046EEA71E080E892E00E941705BB
:2013C0008091D4019091D501892B09F0CACE61E089E00E94DE0066E470E080E090E00E94B5
:2013E0006D0160E089E00E94DE000E94C90380E00E9472046DE871E080E892E00E94170532
:2014000081E00E94720490E080E00E948F0A482F50E070E060E02AE080E892E00E949504F2
:2014200060E273E080E090E00E946D010E9431050E94C90380E00E9472046DE971E080E86A
:2014400092E00E94170581E00E9472041092D6011092D7011092D8011092D90140E050E0A9
:20146000BA0180E892E00E94E1040E94190579CE61E089E00E94DE0064E170E080E090E0BA
:201480000E946D0160E089E00E94DE0082E00E94720496CF019709F093CF8091D20190913C
:2014A000D301019709F08CCF1092D3011092D20187CFCD2B09F084CF1092D6011092D701F4
:2014C0001092D8011092D90161E089E00E94DE0068EC70E080E090E00E946D0160E089E0BE
:2014E0000E94DE000E94C90380E00E9472046DE971E080E892E00E94170581E00E947204CE
:201500004091D6015091D7016091D8017091D90180E892E00E94E1040E94190551CFF999F2
:20152000FECF92BD81BDF89A992780B50895262FF999FECF1FBA92BD81BD20BD0FB6F894E5
:20154000FA9AF99A0FBE01960895A1E21A2EAA1BBB1BFD010DC0AA1FBB1FEE1FFF1FA217AB
:20156000B307E407F50720F0A21BB30BE40BF50B661F771F881F991F1A9469F760957095CE
:20158000809590959B01AC01BD01CF010895EE0FFF1F0590F491E02D0994F894FFCF010063
:2015A0000100000000003F029F01CC018C02FD01DB01EF010000000080049F01AD02AC02A3
:2015C0000D0A005345542054484520434F554E542100436F756E74204C696D69743A004497
:2015E0004F574E2055502053455400436F756E74204C696D6974205365743A00696E6669D2
:201600006E697479002A2A2A2A2A2A2A2A2A2A2A2A2A2A2A2A002A4F626A65637420436F13
:20162000756E7465722A002A202A006C61737420636F756E74207761733A004F626A656359
:201640007420436F756E743A005345542052535400436F756E746572203D2000436E74200C
:201660004C6D742052656163686564210000FFFFFFFFFFFFFFFFFFFFFFFFFFFFFFFFFFFF62
:20168000FFFFFFFFFFFFFFFFFFFFFFFFFFFFFFFFFFFFFFFFFFFFFFFFFFFFFFFFFFFFFFFF6A
:2016A000FFFFFFFFFFFFFFFFFFFFFFFFFFFFFFFFFFFFFFFFFFFFFFFFFFFFFFFFFFFFFFFF4A
:2016C000FFFFFFFFFFFFFFFFFFFFFFFFFFFFFFFFFFFFFFFFFFFFFFFFFFFFFFFFFFFFFFFF2A
:2016E000FFFFFFFFFFFFFFFFFFFFFFFFFFFFFFFFFFFFFFFFFFFFFFFFFFFFFFFFFFFFFFFF0A
:207E0000112484B714BE81FFF0D085E08093810082E08093C00088E18093C10086E08093FC
:207E2000C20080E18093C4008EE0C9D0259A86E020E33CEF91E0309385002093840096BBAD
:207E4000B09BFECF1D9AA8958150A9F7CC24DD2488248394B5E0AB2EA1E19A2EF3E0BF2E79
:207E6000A2D0813461F49FD0082FAFD0023811F0013811F484E001C083E08DD089C0823404
:207E800011F484E103C0853419F485E0A6D080C0853579F488D0E82EFF2485D0082F10E0A0
:207EA000102F00270E291F29000F111F8ED068016FC0863521F484E090D080E0DECF84364D
:207EC00009F040C070D06FD0082F6DD080E0C81680E7D80618F4F601B7BEE895C0E0D1E0ED
:207EE00062D089930C17E1F7F0E0CF16F0E7DF0618F0F601B7BEE89568D007B600FCFDCF1A
:207F0000A601A0E0B1E02C9130E011968C91119790E0982F8827822B932B1296FA010C016F
:207F200087BEE89511244E5F5F4FF1E0A038BF0751F7F601A7BEE89507B600FCFDCF97BE85
:207F4000E89526C08437B1F42ED02DD0F82E2BD03CD0F601EF2C8F010F5F1F4F84911BD0B8
:207F6000EA94F801C1F70894C11CD11CFA94CF0CD11C0EC0853739F428D08EE10CD085E9AE
:207F80000AD08FE07ACF813511F488E018D01DD080E101D065CF982F8091C00085FFFCCF0A
:207FA0009093C60008958091C00087FFFCCF8091C00084FD01C0A8958091C6000895E0E68F
:207FC000F0E098E1908380830895EDDF803219F088E0F5DFFFCF84E1DECF1F93182FE3DF47
:207FE0001150E9F7F2DF1F91089580E0E8DFEE27FF270994FFFFFFFFFFFFFFFFFFFF040425
:00000001FF
